:020000040800F2
:10000000980D0020450100088D130008EB11000831
:100010008913000833020008C5180008000000001A
:100020000000000000000000000000005117000860
:1000300037020008000000002517000853170008C9
:100040005F0100085F0100085F0100085F01000810
:100050005F0100085F0100085F0100085F01000800
:100060005F0100085F0100085F0100085F010008F0
:100070005F0100085F0100085F0100085F010008E0
:100080005F0100085F0100085F0100085F010008D0
:100090005F0100085F0100085F01000845020008D9
:1000A0005F0100085F0100085F0100085F010008B0
:1000B0005F0100085F0100085F0100085F010008A0
:1000C0005F0100085F0100085F0100085F01000890
:1000D0005F0100085F0100085F0100085F01000880
:1000E000390200085F0100085F0100085F01000895
:1000F0005F0100085F0100085F0100085F01000860
:100100005F0100085F0100085F0100085F0100084F
:100110005F0100085F010008191800085F0100086E
:100120005F0100085F0100085F0100085F0100082F
:10013000DFF80CD000F03CF800480047F51B000841
:10014000980D00200648804706480047FEE7FEE776
:10015000FEE7FEE7FEE7FEE7FEE7FEE7FEE7FEE777
:10016000C1170008310100080649074A08685043D2
:1001700043F23902104408604008704701490860A2
:1001800070470000500900206D4EC641D2B201E018
:1001900000F8012B491EFBD270470022F6E710B58C
:1001A00013460A4604461946FFF7F0FF204610BDE5
:1001B000064C074D06E0E06840F0010394E80700B4
:1001C00098471034AC42F6D3FFF7B6FF841D000801
:1001D000A41D000870B58D1810F8014B14F003022F
:1001E00001D110F8012B231106D110F8013B03E0D7
:1001F00010F8016B01F8016B521EF9D1ABB110F888
:10020000012B04F00C048A1A0C2C03D0A2EB8412EC
:100210009B1C08E010F8014BA2EB0422F8E712F84F
:10022000014B01F8014B5B1EF9D5A942D4D3002044
:1002300070BD00BFFEE7704710B54FF4806000F05E
:1002400097F810BD10B54FF4807000F091F84FF49E
:10025000007000F08DF8802000F08AF810BD72B6B2
:1002600000BFFEE770B5044600F03EFA064625469C
:10027000681C10B104480078054400BF00F034FA4F
:10028000801BA842FAD370BD4809002070B504460F
:10029000802C12D140F2DC5500BF281EA5F10105CB
:1002A000FBD140F2DC55802C06D101202E4908708C
:1002B00001022E4800F00AFA54E0B4F5807F18D10C
:1002C00040F2DC5500BF281EA5F10105FBD140F22C
:1002D000DC55B4F5807F06D1022023490870C101A6
:1002E000224800F0F3F94FF40071204800F0EEF9D5
:1002F00038E0B4F5007F19D140F2DC5500BF281E6C
:10030000A5F10105FBD140F2DC55B4F5007F07D122
:100310000320154908704FF48071144800F0D6F995
:100320004FF48061114800F0D1F91BE0B4F5806F03
:1003300018D140F2DC5500BF281EA5F10105FBD104
:1003400040F2DC55B4F5806F06D1042006490870F0
:100350008101064800F0BAF94FF40061034800F04B
:10036000B5F900BF70BD0000B000002000140140CE
:1003700010B5044604480068204020B102480460DB
:100380002046FFF783FF10BD140401402DE9F84714
:10039000024600239C467BE14FF0010808FA03F473
:1003A000D1F8008008EA0400A0427DD1DFF8F4A271
:1003B000D1F80480A8EB0A09D0453AD014DCB8F192
:1003C000030F50D009DCB8F1000F31D0B8F1010FA4
:1003D0001CD0B8F1020F49D120E0B8F1110F18D0AC
:1003E000B8F1120F42D11EE0B9F5881F25D006DC06
:1003F000B9F5803F20D0B9F5801F37D11AE0B9F5A3
:10040000001F18D0B9F5041F30D117E0D1F80CC087
:100410002DE0D1F80C8008F1040C28E0D1F80C8014
:1004200008F1080C23E0D1F80C8008F10C0C1EE058
:1004300000BF00BF00BF00BF00BF00BFD1F80880F1
:10044000B8F1000F02D14FF0040C0BE0D1F8088096
:10045000B8F1010F03D14FF0080C146102E04FF026
:10046000080C546103E04FF0000C00E000BF00BF37
:10047000FF2801D8904601E002F104084646FF2813
:1004800002D84FEA830803E0A3F108084FEA88087E
:100490004746D6F800804FF00F0909FA07F928EA15
:1004A00009080CFA07F900E07AE048EA0908C6F8FA
:1004B0000080D1F8048008F08058B8F1805F6FD1D7
:1004C00000BFDFF8E481D8F8188048F00108DFF8B1
:1004D000D891C9F81880C846D8F8188008F00108E3
:1004E000CDF8008000BF00BF4FEAB9384FEA93094A
:1004F00058F829504FEA83784FEA18794FF00F08DF
:1005000008FA09F825EA0805DFF8A081424502D17A
:100510004FF0000824E0DFF89881424502D14FF007
:1005200001081DE0DFF88C81424502D14FF002083E
:1005300016E0DFF88481424502D14FF003080FE056
:10054000DFF87881424502D14FF0040808E0DFF877
:100550007081424502D14FF0050801E04FF00608D6
:100560004FEA83794FEA197908FA09F848EA05054C
:10057000DFF850814FEA930948F82950D1F80480F8
:1005800008F48038B8F5803F0BD1DFF83C81D8F80B
:10059000008048EA0008DFF83091C9F800800AE0DE
:1005A00075E0DFF82481D8F8008028EA0008DFF839
:1005B0001891C9F80080D1F8048008F40038B8F523
:1005C000003F0ED1DFF8008108F10408D8F8008060
:1005D00048EA0008DFF8F09009F10409C9F8008042
:1005E0000DE0DFF8E48008F10408D8F8008028EA7C
:1005F0000008DFF8D49009F10409C9F80080D1F8A7
:10060000048008F48018B8F5801F0ED1DFF8B88098
:1006100008F10808D8F8008048EA0008DFF8A89038
:1006200009F10809C9F800800DE0DFF89C8008F1A5
:100630000808D8F8008028EA0008DFF88C9009F153
:100640000809C9F80080D1F8048008F40018B8F54A
:10065000001F0ED1DFF8708008F10C08D8F8008078
:1006600048EA0008DFF8609009F10C09C9F8008039
:100670000DE0DFF8548008F10C08D8F8008028EA73
:100680000008DFF8449009F10C09C9F800805B1CF0
:10069000D1F8008028FA03F8B8F1000F7FF47CAE9F
:1006A000BDE8F8870000111000100240000801406A
:1006B000000C0140001001400014014000180140EE
:1006C000001C01400800014000040140C2680A40CB
:1006D0000AB1416100E0016170470AB1016101E0C6
:1006E0000B04036170470000014800687047000078
:1006F000400900200348006803490978084401497B
:1007000008607047400900204809002010B50848DB
:10071000006840F0100006490860032000F0A8F8C7
:100720000F2000F007F800F02BF8002010BD0000AB
:100730000020024070B504460E4800784FF47A71EC
:10074000B1FBF0F00C490968B1FBF0F5284600F068
:10075000E5FB08B1012070BD102C07D20022214614
:10076000501E00F047F80548046001E00120F2E760
:100770000020F0E7480900204C090020440900202F
:1007800008B500BF1148806940F001000F49886139
:100790000846806900F00100009000BF00BF00BF64
:1007A0000846C06940F08050C8610846C06900F042
:1007B0008050009000BF00BF00BF0549486820F08E
:1007C000E06040F00070486000BF08BD00100240CB
:1007D0000000014001460846002809DB00F01F0325
:1007E00001229A4043099B0003F1E023C3F8002152
:1007F00000BF70472DE9F05F80460D461646002782
:1008000001F062F8074639462A46334601F00700F0
:10081000C0F1070ABAF1040F02D94FF0040A01E04F
:10082000C0F1070AD14600F1040ABAF1070F02D25B
:100830004FF0000A01E0A0F1030AD4464FF0010A8C
:100840000AFA09FAAAF1010A0AEA020A0AFA0CFAF1
:100850004FF0010B0BFA0CFBABF1010B0BEA030B96
:100860004AEA0B042146404601F036F8BDE8F09F05
:1008700000BF00F00702064B19684FF6FF0319404E
:10088000044B0B4343EA0221014B196000BF704740
:100890000CED00E00000FA0570B504460D460CB9F9
:1008A000012070BD5A48006800F00700A8420ED22F
:1008B0005748006820F0070028435549086008465B
:1008C000006800F00700A84201D00120E9E7207885
:1008D00000F0020002281DD1207800F00400042856
:1008E00005D14C48406840F4E0604A4948602078AF
:1008F00000F00800082805D14648406840F46050E0
:10090000444948604348406820F0F000A16808432B
:1009100040494860207800F0010078B36068012801
:1009200006D13C48006800F4003090B90120B8E7D7
:100930006068022806D13748006800F0007040B9AE
:100940000120AEE73348006800F0020008B901203A
:10095000A7E73048406820F00300616808432D494C
:100960004860FFF7C1FE064609E0FFF7BDFE801BA9
:1009700041F28831884202D9032092E707E02548F6
:10098000406800F00C006168B0EB810FEDD12048A9
:10099000006800F00700A8420ED91D48006820F04A
:1009A000070028431A4908600846006800F007005D
:1009B000A84201D0012074E7207800F00400042848
:1009C00007D11448406820F4E060E1680843114909
:1009D0004860207800F00800082808D10D484068D9
:1009E00020F46050216940EAC1000A49486000F0E3
:1009F00019F808494968C1F30311074A515CC84016
:100A00000649086006480068FFF794FE002048E7A2
:100A100000200240001002406A1D00084C0900201E
:100A200044090020F0B585B00FF26C0C9CE8E01092
:100A300001A8A0E8E0101CA52D6800950021002267
:100A4000002300240020194D696801F00C05F5B160
:100A5000042D02D0082D19D101E0154819E001AD8F
:100A6000C1F38346AC5D01F4803555B10F4D6D681F
:100A7000C5F340451DF805200D4D6543B5FBF2F368
:100A800002E00C4D04FB05F3184602E000BF0848E5
:100A900000BF00BF05B0F0BD02030405060708094A
:100AA0000A0B0C0D0E0F1010010200000010024086
:100AB00000127A0000093D00F8B504460CB9012087
:100AC000F8BD207800F00100002878D0F848406890
:100AD00000F00C0004280CD0F548406800F00C0031
:100AE000082811D1F248406800F48030B0F5803F0A
:100AF0000AD1EF48006800F4003000285FD0606839
:100B000000285CD10120DBE700BF6068B0F5803FC2
:100B100006D1E748006840F48030E549086028E0E5
:100B2000606858B9E248006820F48030E049086005
:100B30000846006820F4802008601AE06068B0F57C
:100B4000A02F0BD1DA48006840F48020D849086013
:100B50000846006840F4803008600AE0D448006825
:100B600020F48030D24908600846006820F48020D4
:100B7000086000BF606888B1FFF7B6FD054606E073
:100B8000FFF7B2FD401B642801D9032098E7C8484D
:100B9000006800F400300028F2D010E0FFF7A4FD58
:100BA000054606E0FFF7A0FD401B642801D903209D
:100BB00086E7BF48006800F400300028F2D12078B2
:100BC00000F00200022857D1B948406800F00C003C
:100BD00050B1B748406800F00C00082818D1B4485C
:100BE000406800F4803098B9B148006800F0020015
:100BF00020B12069012801D0012061E7AC480068DC
:100C000020F0F800616940EAC100A949086033E0BA
:100C10002069E8B10120A7490860FFF765FD054696
:100C200006E0FFF761FD401B022801D9032047E7DA
:100C30009F48006800F002000028F2D09C4800683D
:100C400020F0F800616940EAC1009949086013E0AA
:100C5000002098490860FFF747FD054606E0FFF7CA
:100C600043FD401B022801D9032029E79048006872
:100C700000F002000028F2D1207800F008000828D7
:100C80002DD1A069B8B101208B490860FFF72CFD78
:100C9000054606E0FFF728FD401B022801D9032086
:100CA0000EE78348406A00F002000028F2D00120DD
:100CB00000F03AFD13E000207F490860FFF714FDC3
:100CC000054606E0FFF710FD401B022801D903206E
:100CD000F6E67748406A00F002000028F2D120785A
:100CE00000F00400042873D100277148C06900F0A7
:100CF000805070B900BF6E48C06940F080506C49A8
:100D0000C8610846C06900F08050009000BF00BF75
:100D100001276A48006800F48070B0B9674800682D
:100D200040F4807065490860FFF7DEFC054606E088
:100D3000FFF7DAFC401B642801D90320C0E65F48B6
:100D4000006800F480700028F2D000BFE06801283D
:100D500006D15748006A40F001005549086227E073
:100D6000E06858B95248006A20F001005049086212
:100D70000846006A20F00400086219E0E0680528CF
:100D80000BD14B48006A40F004004949086208460C
:100D9000006A40F0010008620AE04548006A20F05D
:100DA0000100434908620846006A20F00400086216
:100DB00000BFE068A0B1FFF797FC054609E0FFF728
:100DC00093FC401B41F28831884202D9032077E628
:100DD00022E03748006A00F002000028EFD012E05D
:100DE000FFF782FC054608E0FFF77EFC401B41F25E
:100DF0008831884201D9032062E62D48006A00F05C
:100E000002000028F0D1012F05D12948C06920F047
:100E100080502749C86100BFE069C8B324484068D2
:100E200000F00C00082860D0E069022848D10020BA
:100E300020490866FFF758FC054606E0FFF754FC1A
:100E4000401B022801D903203AE61948006800F047
:100E500000700028F2D1206AB0F5803F07D1144815
:100E6000406820F40030A168084311494860D4E983
:100E7000080108430E49496821F4741108430C49DC
:100E8000486001200B490866FFF72EFC054607E085
:100E90003DE0FFF729FC401B022801D903200FE6A3
:100EA0000348006800F000700028F2D02FE0000036
:100EB00000100240000042428004424200700040A4
:100EC000002014490866FFF70FFC054606E0FFF70F
:100ED0000BFC401B022801D90320F1E50E480068F5
:100EE00000F000700028F2D111E0E069012800D183
:100EF000E6E50948466806F48031206A814204D15B
:100F000006F47011606A814201D00120D8E500200A
:100F1000D6E50000000042420010024070B50446D1
:100F20002546681EB0F1807F01D301200FE0681EC6
:100F30004FF0E02148610F214FF0FF3000F0CCFC72
:100F400000204FF0E021886107200861002070BD7B
:100F50007047704710B5024600BF92F83C00012868
:100F600001D1022010BD012082F83C0000BF022008
:100F700082F83D00106843681068846823F07003AD
:100F80000868034324F08004486804431068436001
:100F900010688460012082F83D0000BF002082F8C4
:100FA0003C0000BF00BFDDE710B504460CB90120CE
:100FB00010BD94F83D0028B9002084F83C0020467C
:100FC00000F00CF8022084F83D00211D206800F09C
:100FD0002BFC012084F83D000020E9E738B50446E9
:100FE0000D492068884215D100BF0C48C06940F007
:100FF00010000A49C8610846C06900F0100000905E
:1010000000BF00BF002202213620FFF7F3FB36208D
:10101000FFF7E0FB38BD0000001000400010024068
:1010200001460868C06840F001000B68D860086895
:10103000806800F00702062A05D00868006840F0C2
:1010400001000B68186000207047704710B5044617
:1010500020680069C0F34000D8B12068C068C0F3C0
:101060004000B0B16FF002002168086101202077D4
:101070002068806900F0030018B12046FFF7E5FF03
:1010800005E0204600F0ADF8204600F0ABF8002067
:10109000207720680069C0F38000D8B12068C0685C
:1010A000C0F38000B0B16FF0040021680861022035
:1010B00020772068806900F4407018B12046FFF75F
:1010C000C4FF05E0204600F08CF8204600F08AF8C6
:1010D0000020207720680069C0F3C000D8B12068E4
:1010E000C068C0F3C000B0B16FF0080021680861AB
:1010F000042020772068C06900F0030018B1204662
:10110000FFF7A3FF05E0204600F06BF8204600F053
:1011100069F80020207720680069C0F30010D8B17A
:101120002068C068C0F30010B0B16FF010002168F3
:101130000861082020772068C06900F4407018B169
:101140002046FFF782FF05E0204600F04AF82046DF
:1011500000F048F8002020772068006900F00100C6
:1011600058B12068C06800F0010030B16FF0010094
:1011700021680861204600F036F820680069C0F355
:10118000C01058B12068C068C0F3C01030B16FF013
:101190008000216808612046FFF7DAFE20680069B8
:1011A000C0F3801058B12068C068C0F3801030B11F
:1011B0006FF0400021680861204600F015F82068B3
:1011C0000069C0F3401058B12068C068C0F34010F7
:1011D00030B16FF02000216808612046FFF7B9FEAA
:1011E00010BD704770477047704700BFFEE70000B2
:1011F00000B585B00020019002900390049000BFDC
:101200004948806940F04000474988610846806944
:1012100000F04000009000BF00BF00BF084680699A
:1012200040F0100088610846806900F010000090CE
:1012300000BF00BF00BF0846806940F02000886101
:101240000846806900F02000009000BF00BF00BF8A
:101250000846806940F0040088610846806900F013
:101260000400009000BF00BF00BF0846806940F046
:10127000080088610846806900F00800009000BFFF
:1012800000BF00220E212948FFF727FA00224FF461
:1012900070612748FFF721FA00224FF4407125487A
:1012A000FFF71BFA0E20019001200290002003900E
:1012B0000220049001A91D48FFF768F84FF4F06080
:1012C00001901D4802900120039001A91748FFF7E3
:1012D0005DF84FF4706001900120029003900320AC
:1012E000049001A91248FFF751F84FF440700190A3
:1012F00001200290002003900220049001A90D48D3
:10130000FFF744F8012200211720FFF773FA172096
:10131000FFF760FA022200212820FFF76BFA28204D
:10132000FFF758FA05B000BD001002400018014058
:1013300000140140000C0140000021101CB50020E9
:10134000009001900E480F49086006204860002177
:101350000C48816042F20F71C16000218161FFF78A
:1013600023FE08B1FEF77BFF002000900190694644
:101370000448FFF7EFFD08B1FEF771FF1CBD000048
:10138000001000405409002000BFFEE700BFFEE748
:1013900070B5002419E004F1B001C8B2002100F0DA
:1013A0007BF90021022000F077F90021102000F0E5
:1013B00073F9002505E00121002000F06DF9681C9B
:1013C000C5B2802DF7DB601CC4B2082CE3DB70BD16
:1013D0002DE9F05F06460F4690461C46DDF828A032
:1013E0004FF0000BE11704EB5171C910A4EBC101E0
:1013F00031B92046E11704EB5171C1F3C70506E08E
:101400002046E11704EB5171C910491CCDB23D468D
:1014100015E02946304600F0F3F8B1460BE0594696
:101420000BF1010B1AF80100012100F035F909F167
:10143000010000F0FF09C145F1DB681CC5B2A542FF
:10144000E7DBBDE8F09F000000B585B0002001900B
:1014500002900390049000BF1848806940F0080093
:10146000164988610846806900F00800009000BFB6
:1014700000BF00BF0846806940F040008861084610
:10148000806900F04000009000BF00BF0E20019076
:10149000012002900220049001A90948FEF776FF7E
:1014A0004FF440700190012002900220049001A9A5
:1014B0000448FEF76BFF05B000BD000000100240BD
:1014C00000180140000C014010B5012204214B48D6
:1014D000FFF703F96420FEF7C5FE00220421474808
:1014E000FFF7FBF86420FEF7BDFE0122042143480C
:1014F000FFF7F3F80021AE2000F0CEF80021022023
:1015000000F0CAF80021102000F0C6F800214020A9
:1015100000F0C2F80021812000F0BEF80021CF20A9
:1015200000F0BAF80021A12000F0B6F80021C82090
:1015300000F0B2F80021A62000F0AEF80021A820AB
:1015400000F0AAF800213F2000F0A6F80021812039
:1015500000F0A2F80021FF2000F09EF80021D32027
:1015600000F09AF80021084600F096F80021D520F6
:1015700000F092F80021802000F08EF80021D920A0
:1015800000F08AF80021F12000F086F80021DA202E
:1015900000F082F80021122000F07EF80021DB200C
:1015A00000F07AF80021402000F076F80021202099
:1015B00000F072F80021022000F06EF800218D206A
:1015C00000F06AF80021142000F066F80021A42041
:1015D00000F062F80021A62000F05EF80021AF20A4
:1015E00000F05AF80021AF2000F056F8FFF7D0FEC7
:1015F0000021084600F004F810BD0000001801406A
:1016000070B504460D4605F1B001C8B2002100F0E6
:1016100043F8102141EA1410002100F03DF804F0D5
:101620000F0141F00100002100F036F870BD00000C
:101630002DE9F04180460E461546002731464046CA
:10164000FFF7DEFF00240AE0124A02EB4511085DB5
:10165000012100F021F8781CC7B2601CC4B2102C24
:10166000F2DB701CC1B24046FFF7CAFF00240CE059
:101670006900491C074A02EB0111085D012100F0D5
:101680000BF8781CC7B2601CC4B2102CF0DBBDE8AC
:10169000F0810000BC04002070B504460E462EB157
:1016A000012202211D48FFF718F804E00022022160
:1016B0001A48FFF712F8002208211848FFF70DF822
:1016C00000251DE000224FF400711548FFF705F8D2
:1016D00004F0800028B1012211021148FEF7FDFF3D
:1016E00005E000224FF480710D48FEF7F6FF01225D
:1016F00051020B48FEF7F1FF6006040E681CC5B2EC
:10170000082DDFDB012208210448FEF7E6FF012255
:1017100002210248FEF7E1FF70BD00000018014001
:10172000000C01407047000008B508490968C90865
:101730004FF47A72B1FBF2F14143009100BF00BF58
:1017400000994A1E00920029F9D108BD4C090020D9
:10175000704710B5FEF7CEFF10BD00B58FB0282141
:1017600005A8FEF71AFD14216846FEF716FD0120B4
:1017700005900004069000200790012009900220A7
:101780000C90C1030D914FF4E0110E9105A8FFF7E5
:1017900093F908B1FEF763FD0F200090022001903D
:1017A000002002904FF480600390002004900221FA
:1017B0006846FFF771F808B1FEF751FD0FB000BDA4
:1017C0001148006840F001000F4908600846406871
:1017D0000E4908400C494860084600680C4908401A
:1017E000094908600846006820F48020086008461F
:1017F000406820F4FE0048604FF41F008860C80372
:101800000449086070470000001002400000FFF823
:10181000FFFFF6FE08ED00E010B50248FFF716FCEA
:1018200010BD00005409002010B50268204B9842FA
:101830000ED0204B98420BD0B0F1804F08D01E4BF9
:10184000984205D01D4B984202D01D4B984203D1BF
:1018500022F070024B681A43154B98420ED0154B7C
:1018600098420BD0B0F1804F08D0134B984205D06E
:10187000124B984202D0124B984203D122F440728C
:10188000CB681A4322F080034C6943EA04020260E9
:101890008B68C3620B688362054B984202D0054B8C
:1018A000984201D10B6903630123436110BD00001D
:1018B000002C0140003401400004004000080040BA
:1018C000000C004000BFFEE702480068C0F30220A1
:1018D000704700000CED00E010B5002804DB0A079B
:1018E000130E054A135406E00A07140E034A00F0CB
:1018F0000F031B1FD45410BD00E400E018ED00E0FE
:1019000002E008C8121F08C1002AFAD170477047C8
:10191000002001E001C1121F002AFBD17047000026
:1019200008B591480078012842D1FFF731FD1F2208
:1019300000210846FFF77CFE202200211020FFF73F
:1019400077FE212200212020FFF772FE22220021B3
:101950003020FFF76DFE232200214020FFF768FEB4
:10196000824808231A22052100900420FFF730FD49
:101970007F4808231F22072100900120FFF728FD40
:101980007B4808233F22072100902120FFF720FDFC
:10199000774808235F22072100904120FFF718FDB8
:1019A000734808237F22072100906120FFF710FD74
:1019B0006D480078022842D1FFF7EAFC1F2200217F
:1019C0000846FFF735FE202200211020FFF730FEE9
:1019D000212200212020FFF72BFE2222002130208F
:1019E000FFF726FE232200214020FFF721FE5F485B
:1019F00008233A22052100902420FFF7E9FC5C48E7
:101A000008231F22072100900120FFF7E1FC58481E
:101A100008233F22072100902120FFF7D9FC5448DA
:101A200008235F22072100904120FFF7D1FC504896
:101A300008237F22072100906120FFF7C9FC4A4854
:101A40000078032847D1FFF7A3FC1F220021084696
:101A5000FFF7EEFD202200211020FFF7E9FD2122F3
:101A600000212020FFF7E4FD222200213020FFF793
:101A7000DFFD232200214020FFF7DAFD3B48082349
:101A80005A22052100904420FFF7A2FC3848082381
:101A90001F22072100900120FFF79AFC34480823F9
:101AA0003F22072100902120FFF792FC30480823B5
:101AB0005F22072100904120FFF78AFC2C48082371
:101AC0007F22072100906120FFF782FC29480078DF
:101AD000401C2849087024480078042842D1FFF7A8
:101AE00057FC1F2200210846FFF7A2FD20220021FB
:101AF0001020FFF79DFD212200212020FFF798FDF7
:101B0000222200213020FFF793FD232200214020D4
:101B1000FFF78EFD154808237A22052100906420E6
:101B2000FFF756FC124808231F22072100900120CE
:101B3000FFF74EFC0E4808233F220721009021208A
:101B4000FFF746FC0A4808235F2207210090412046
:101B5000FFF73EFC064808237F2207210090612002
:101B6000FFF736FC08BD0000AD000020000000209B
:101B700042000020AF00002070B5FEF7B5FD05461D
:101B80002846FEF7FBFAFEF7EFFA0446C01704EB0F
:101B900090708010A4EB8000401CC0B270BD10B5E6
:101BA000FFF7F6FB112202212820FFF741FD122248
:101BB00002213820FFF73CFD132202214820FFF7C5
:101BC00037FD0D2204212020FFF732FD0E220421D3
:101BD0003020FFF72DFD142204214020FFF728FDBF
:101BE000152204215020FFF723FD4FF4FA70FEF771
:101BF00039FB10BDFEF78AFDFFF7AFFDFFF7F8FADE
:101C0000FFF79CFB3848FFF70BFAFFF71DFCFFF7C7
:101C10005BFC00BFFFF7BCFB0B2200212320FFF77A
:101C200007FD0C2200213020FFF702FD0D220021CC
:101C30004020FFF7FDFC0E2200215020FFF7F8FCAA
:101C400000BF2A4800780028FBD0002027490870F0
:101C500027490870274908704FF47A70FEF702FB95
:101C600040E0FFF789FF23490870FFF759FE35E090
:101C70001F480078012808D1FFF77EFF1D49087032
:101C8000FFF74EFE00201A490870184800781949DD
:101C9000097888420DD100201749087000F030F80B
:101CA0000120134908701549087000200F49087079
:101CB00014E00E4800780F49097888420ED00B488E
:101CC000007858B100200C490870FFF768FF022027
:101CD0000A4908700020054908709BE7064800780B
:101CE0000028C5D0BDE7000054090020B000002046
:101CF000AC000020AD000020AE000020AB000020B2
:101D000010B5FFF745FB162202212820FFF790FCB3
:101D1000172202213820FFF78BFC182202214820CD
:101D2000FFF786FC192204211020FFF781FC1A22FC
:101D300004212020FFF77CFC1B2204213020FFF728
:101D400077FC1C2204214020FFF772FC1D22042195
:101D50005020FFF76DFC1E2204216220FFF768FC73
:101D60004FF4FA70FEF77EFA10BD0000000000008C
:101D70000000010203040607080900000000010238
:101D800003040000A41D0008000000205409000006
:101D9000D40100086824000854090020440400000D
:101DA0001019000810370000FE7F0F7717760283A6
:101DB000C3C382027617770F7FFE0000F87F07000B
:101DC0000070F0D8181809090818D8F0700000073A
:101DD0007FF83F3C001F3F060607010001000D177A
:101DE000010706063F1F003C3F181710016014173B
:101DF0001860F8FCFCFC7C3E1F0F07070FDEFEFCA2
:101E000030000160163E7FFFE3C180C0E0F0F87E45
:101E1000FFFFFFFDF8F0F0E0C0801D220101310856
:101E2000100703070F1F1F3F0100042F3E3C000156
:101E3000403D0202FAFAAAAAFFFFAAAAFAFA02028F
:101E400000004272723A7A424B5B526262137766CA
:101E500000203C1CFFFFB0B424243F3FE4E42424D2
:101E600020020203FFFF0001051D59C1FF7F8130E1
:101E70000CF8F8484C4F4B4A4848F8F8B64004FF75
:101E8000FF4401112920050020242438102124308A
:101E900010FFFF10F0F000081C1F0B0C0D4F6E34EC
:101EA0001C0F23607F3F0080C060F8FF07023520D1
:101EB00006E0703C1C0840000E3E7F7F0406033F96
:101EC0007F40404078780001200810218670007E15
:101ED0004A01327EEF5007FE01407F41410312402C
:101EE000AF100AFC042424FCA5A6A4FCA6102E0412
:101EF0000080601F808042462A12122A2642C0407B
:101F000000080808FF8848009848280A2C48D80884
:101F1000000242817F0000404242427E0411401094
:101F20000B504F4A48FF48484800FCFA21BF100CAC
:101F30003F0101FF21613F000F40802A1007009000
:101F40008CA4A4A45F1101180A948C0400008040A2
:101F500020183913003FE01933100F000474D4FF28
:101F6000D47404100CB744B40C20200F42437A43BD
:101F700042437E4B4B4A4A4243018011831007F98A
:101F80004A4C4848C80C140800404020100C035824
:101F9000380440403F24180E202C246474ADA6E47D
:101FA0003424242C2434200E24242515150DFE045D
:101FB0000D1714246411240600F848484C9F464825
:101FC0009F66009F2244AF25A0159F140920101082
:101FD000FF1010F000A010070B080C054E2465221E
:101FE0002062053E00180E0807FAAAAEAAAAA8ACFD
:101FF000ABAAFE0A60100708088B6A1E0A012004BB
:10200000FE0A0BD03008106001C63000107F171098
:10201000100F141304FE01004161514D4341415121
:10202000E101004041CE95240940BE828282BEC0BB
:1020300040B0140C7F20908040432C10102C43A003
:10204000100520212EE4C6110122FF0539402B2066
:1020500010485EFF450311FF3248A25500130F04DC
:1020600001263F00364F812202015C08E2120A0677
:1020700002008056032B4181DB4D60034007202086
:102080002222E222042160558035C015C16009403A
:1020900020F80F82601E14C0250531446EFFA00396
:1020A000500500007E480112CC985204011C0F24F8
:1020B0004644201F0000849494FF949480220310CF
:1020C00005FC121312CA14061806FF021C2A140774
:1020D000023F414141711A2405D0FE50902127D082
:1020E000FE211C040806017F033805100804435E26
:1020F000300A009088A7A2A6BAA2F80643828060A0
:1021000010070C340444847F6A29F1130CE0A410F6
:10211000054F4849FE86160860299512FFD1223FD7
:10212000D1100800809090484C577F3C06544C4496
:1021300080805D041006FF4949497F0439CE191596
:102140001A1F181810808282E2928A86800040222C
:102150001508166102417F553F340402E2224155C1
:1021600073711D3D5F03140604FC0002F2C032FED1
:102170005F157F3A0FD64B4888C2AC0838340282CC
:10218000C27C38B5038F3737C0031999580C90209B
:10219000988888E98E8888A89880600980844B2870
:1021A000102847807F2006FE020242828A51753144
:1021B000BB27010621100D8060F88780848484FE8F
:1021C0008283828115D21EFF45032F404060041D8B
:1021D000BF03140E101012D2565A5253525A56D2EE
:1021E0001260180D4030007785858DB5858585E7AF
:1021F0009D11101C0EEF242480E49C105454FF54B5
:102200007C106E05240E7F21512618274445455F1A
:10221000454544191B82FE9D41061580800580407E
:10222000300F846540440940E05847405060C0404A
:102230001E2152061D42041E4246061C0D1060025D
:102240008C0008F94EC820584FE20315A0137E8178
:10225000423404407F00C21D91031006488808C81C
:1022600038B11805FF2022AC802DFF031F0418464B
:1022700004540617182641F06032FE855AFEDF4AE4
:102280000F9D1C044041404005A280010D12210514
:10229000200788C43300FE920121402F0201C603AB
:1022A000140AFF4020030C142241402B1C0542CC91
:1022B0002020C2034C05BFAAAAAE0003140B1F20A6
:1022C0004067504846485067411410E000FF102016
:1022D000FC04D454D404FF84650660140DFF000888
:1022E00047300131455842610AC86C0440301EDE57
:1022F000032D1F03141081814121110D0301030DD2
:102300001121418181091C0802FA02FE4020D822D5
:102310000716F080140B8047300F1067804021169D
:10232000271F40807F031C052424A47F1F031F7FD9
:10233000A4A6041620202F221959042406083004CC
:10234000093220100402EAAA0122AF053FEA02CFB7
:10235000063F4A4BEF053F4B4AD00619001E077354
:10236000051F0F083F054B2818001DDD0421444CB4
:10237000040106187A042E90130419A91570980602
:102380000444827F01C33C0C4262524AC6425262FC
:10239000C200F8E004200540C444448F5E20E004FD
:1023A0004D7904140480F880A02D40051C051030E0
:1023B000100FA7051DDE052C055F424443C0061D16
:1023C0007D061E49EC056D8106400600FF8049121E
:1023D000050C04203F40F040031522D5B2AE332B4C
:1023E00003180C484AFA0AFE09F949A800000D40F2
:1023F0000DFF0022110B04FF0409122300A11E800F
:1024000070062C0A504844C3444850204081031CA5
:102410000440221A2C031E7F61042C040A1260FF60
:10242000061D1C032EFC60043D83051DD8041D6B96
:10243000041DF805570106021EF847032C06F0128A
:102440001212F267035D5B03D0061F1111111FA664
:102450007DBD03B33636AE5E31C8032DB208211000
:082460003F24F4D40700000042
:0400000508000131BD
:00000001FF
