:020000040800F2
:10000000F80E002045010008F913000857120008F7
:10001000F513000833020008251A0008000000004C
:10002000000000000000000000000000B1180008FF
:10003000370200080000000085180008B318000807
:100040005F0100085F0100085F0100085F01000810
:100050005F0100085F0100085F0100085F01000800
:100060005F0100085F0100085F0100085F010008F0
:100070005F0100085F0100085F0100085F010008E0
:100080005F0100085F0100085F0100085F010008D0
:100090005F0100085F0100085F01000845020008D9
:1000A0005F0100085F0100085F0100085F010008B0
:1000B0005F0100085F0100085F0100085F010008A0
:1000C0005F0100085F0100085F0100085F01000890
:1000D0005F0100085F0100085F0100085F01000880
:1000E000390200085F0100085F0100085F01000895
:1000F0005F0100085F0100085F0100085F01000860
:100100005F0100085F0100085F0100085F0100084F
:100110005F0100085F010008791900085F0100080D
:100120005F0100085F0100085F0100085F0100082F
:10013000DFF80CD000F03CF800480047551D0008DF
:10014000F80E00200648804706480047FEE7FEE715
:10015000FEE7FEE7FEE7FEE7FEE7FEE7FEE7FEE777
:1001600021190008310100080649074A0868504370
:1001700043F23902104408604008704701490860A2
:1001800070470000B40A00206D4EC641D2B201E0B3
:1001900000F8012B491EFBD270470022F6E710B58C
:1001A00013460A4604461946FFF7F0FF204610BDE5
:1001B000064C074D06E0E06840F0010394E80700B4
:1001C00098471034AC42F6D3FFF7B6FF002A000878
:1001D000202A000870B58D1810F8014B14F00302A6
:1001E00001D110F8012B231106D110F8013B03E0D7
:1001F00010F8016B01F8016B521EF9D1ABB110F888
:10020000012B04F00C048A1A0C2C03D0A2EB8412EC
:100210009B1C08E010F8014BA2EB0422F8E712F84F
:10022000014B01F8014B5B1EF9D5A942D4D3002044
:1002300070BD00BFFEE7704710B54FF4806000F05E
:1002400097F810BD10B54FF4807000F091F84FF49E
:10025000007000F08DF8802000F08AF810BD72B6B2
:1002600000BFFEE770B5044600F03EFA064625469C
:10027000681C10B104480078054400BF00F034FA4F
:10028000801BA842FAD370BDAC0A002070B50446AA
:10029000802C12D140F2DC5500BF281EA5F10105CB
:1002A000FBD140F2DC55802C06D101202E4908708C
:1002B00001022E4800F00AFA54E0B4F5807F18D10C
:1002C00040F2DC5500BF281EA5F10105FBD140F22C
:1002D000DC55B4F5807F06D1022023490870C101A6
:1002E000224800F0F3F94FF40071204800F0EEF9D5
:1002F00038E0B4F5007F19D140F2DC5500BF281E6C
:10030000A5F10105FBD140F2DC55B4F5007F07D122
:100310000320154908704FF48071144800F0D6F995
:100320004FF48061114800F0D1F91BE0B4F5806F03
:1003300018D140F2DC5500BF281EA5F10105FBD104
:1003400040F2DC55B4F5806F06D1042006490870F0
:100350008101064800F0BAF94FF40061034800F04B
:10036000B5F900BF70BD0000B100002000140140CD
:1003700010B5044604480068204020B102480460DB
:100380002046FFF783FF10BD140401402DE9F84714
:10039000024600239C467BE14FF0010808FA03F473
:1003A000D1F8008008EA0400A0427DD1DFF8F4A271
:1003B000D1F80480A8EB0A09D0453AD014DCB8F192
:1003C000030F50D009DCB8F1000F31D0B8F1010FA4
:1003D0001CD0B8F1020F49D120E0B8F1110F18D0AC
:1003E000B8F1120F42D11EE0B9F5881F25D006DC06
:1003F000B9F5803F20D0B9F5801F37D11AE0B9F5A3
:10040000001F18D0B9F5041F30D117E0D1F80CC087
:100410002DE0D1F80C8008F1040C28E0D1F80C8014
:1004200008F1080C23E0D1F80C8008F10C0C1EE058
:1004300000BF00BF00BF00BF00BF00BFD1F80880F1
:10044000B8F1000F02D14FF0040C0BE0D1F8088096
:10045000B8F1010F03D14FF0080C146102E04FF026
:10046000080C546103E04FF0000C00E000BF00BF37
:10047000FF2801D8904601E002F104084646FF2813
:1004800002D84FEA830803E0A3F108084FEA88087E
:100490004746D6F800804FF00F0909FA07F928EA15
:1004A00009080CFA07F900E07AE048EA0908C6F8FA
:1004B0000080D1F8048008F08058B8F1805F6FD1D7
:1004C00000BFDFF8E481D8F8188048F00108DFF8B1
:1004D000D891C9F81880C846D8F8188008F00108E3
:1004E000CDF8008000BF00BF4FEAB9384FEA93094A
:1004F00058F829504FEA83784FEA18794FF00F08DF
:1005000008FA09F825EA0805DFF8A081424502D17A
:100510004FF0000824E0DFF89881424502D14FF007
:1005200001081DE0DFF88C81424502D14FF002083E
:1005300016E0DFF88481424502D14FF003080FE056
:10054000DFF87881424502D14FF0040808E0DFF877
:100550007081424502D14FF0050801E04FF00608D6
:100560004FEA83794FEA197908FA09F848EA05054C
:10057000DFF850814FEA930948F82950D1F80480F8
:1005800008F48038B8F5803F0BD1DFF83C81D8F80B
:10059000008048EA0008DFF83091C9F800800AE0DE
:1005A00075E0DFF82481D8F8008028EA0008DFF839
:1005B0001891C9F80080D1F8048008F40038B8F523
:1005C000003F0ED1DFF8008108F10408D8F8008060
:1005D00048EA0008DFF8F09009F10409C9F8008042
:1005E0000DE0DFF8E48008F10408D8F8008028EA7C
:1005F0000008DFF8D49009F10409C9F80080D1F8A7
:10060000048008F48018B8F5801F0ED1DFF8B88098
:1006100008F10808D8F8008048EA0008DFF8A89038
:1006200009F10809C9F800800DE0DFF89C8008F1A5
:100630000808D8F8008028EA0008DFF88C9009F153
:100640000809C9F80080D1F8048008F40018B8F54A
:10065000001F0ED1DFF8708008F10C08D8F8008078
:1006600048EA0008DFF8609009F10C09C9F8008039
:100670000DE0DFF8548008F10C08D8F8008028EA73
:100680000008DFF8449009F10C09C9F800805B1CF0
:10069000D1F8008028FA03F8B8F1000F7FF47CAE9F
:1006A000BDE8F8870000111000100240000801406A
:1006B000000C0140001001400014014000180140EE
:1006C000001C01400800014000040140C2680A40CB
:1006D0000AB1416100E0016170470AB1016101E0C6
:1006E0000B04036170470000014800687047000078
:1006F000A40A002003480068034909780844014916
:1007000008607047A40A0020AC0A002010B5084811
:10071000006840F0100006490860032000F0A8F8C7
:100720000F2000F007F800F02BF8002010BD0000AB
:100730000020024070B504460E4800784FF47A71EC
:10074000B1FBF0F00C490968B1FBF0F5284600F068
:10075000E5FB08B1012070BD102C07D20022214614
:10076000501E00F047F80548046001E00120F2E760
:100770000020F0E7AC0A0020B00A0020A80A002000
:1007800008B500BF1148806940F001000F49886139
:100790000846806900F00100009000BF00BF00BF64
:1007A0000846C06940F08050C8610846C06900F042
:1007B0008050009000BF00BF00BF0549486820F08E
:1007C000E06040F00070486000BF08BD00100240CB
:1007D0000000014001460846002809DB00F01F0325
:1007E00001229A4043099B0003F1E023C3F8002152
:1007F00000BF70472DE9F05F80460D461646002782
:1008000001F012F9074639462A46334601F007003F
:10081000C0F1070ABAF1040F02D94FF0040A01E04F
:10082000C0F1070AD14600F1040ABAF1070F02D25B
:100830004FF0000A01E0A0F1030AD4464FF0010A8C
:100840000AFA09FAAAF1010A0AEA020A0AFA0CFAF1
:100850004FF0010B0BFA0CFBABF1010B0BEA030B96
:100860004AEA0B042146404601F0E6F8BDE8F09F55
:1008700000BF00F00702064B19684FF6FF0319404E
:10088000044B0B4343EA0221014B196000BF704740
:100890000CED00E00000FA0570B504460D460CB9F9
:1008A000012070BD5A48006800F00700A8420ED22F
:1008B0005748006820F0070028435549086008465B
:1008C000006800F00700A84201D00120E9E7207885
:1008D00000F0020002281DD1207800F00400042856
:1008E00005D14C48406840F4E0604A4948602078AF
:1008F00000F00800082805D14648406840F46050E0
:10090000444948604348406820F0F000A16808432B
:1009100040494860207800F0010078B36068012801
:1009200006D13C48006800F4003090B90120B8E7D7
:100930006068022806D13748006800F0007040B9AE
:100940000120AEE73348006800F0020008B901203A
:10095000A7E73048406820F00300616808432D494C
:100960004860FFF7C1FE064609E0FFF7BDFE801BA9
:1009700041F28831884202D9032092E707E02548F6
:10098000406800F00C006168B0EB810FEDD12048A9
:10099000006800F00700A8420ED91D48006820F04A
:1009A000070028431A4908600846006800F007005D
:1009B000A84201D0012074E7207800F00400042848
:1009C00007D11448406820F4E060E1680843114909
:1009D0004860207800F00800082808D10D484068D9
:1009E00020F46050216940EAC1000A49486000F0E3
:1009F00019F808494968C1F30311074A515CC84016
:100A00000649086006480068FFF794FE002048E7A2
:100A10000020024000100240E8290008B00A00202F
:100A2000A80A0020F0B585B00FF26C0C9CE8E0102D
:100A300001A8A0E8E0101CA52D6800950021002267
:100A4000002300240020194D696801F00C05F5B160
:100A5000042D02D0082D19D101E0154819E001AD8F
:100A6000C1F38346AC5D01F4803555B10F4D6D681F
:100A7000C5F340451DF805200D4D6543B5FBF2F368
:100A800002E00C4D04FB05F3184602E000BF0848E5
:100A900000BF00BF05B0F0BD02030405060708094A
:100AA0000A0B0C0D0E0F1010010200000010024086
:100AB00000127A0000093D00F8B504460CB9012087
:100AC000F8BD207800F00100002878D0F848406890
:100AD00000F00C0004280CD0F548406800F00C0031
:100AE000082811D1F248406800F48030B0F5803F0A
:100AF0000AD1EF48006800F4003000285FD0606839
:100B000000285CD10120DBE700BF6068B0F5803FC2
:100B100006D1E748006840F48030E549086028E0E5
:100B2000606858B9E248006820F48030E049086005
:100B30000846006820F4802008601AE06068B0F57C
:100B4000A02F0BD1DA48006840F48020D849086013
:100B50000846006840F4803008600AE0D448006825
:100B600020F48030D24908600846006820F48020D4
:100B7000086000BF606888B1FFF7B6FD054606E073
:100B8000FFF7B2FD401B642801D9032098E7C8484D
:100B9000006800F400300028F2D010E0FFF7A4FD58
:100BA000054606E0FFF7A0FD401B642801D903209D
:100BB00086E7BF48006800F400300028F2D12078B2
:100BC00000F00200022857D1B948406800F00C003C
:100BD00050B1B748406800F00C00082818D1B4485C
:100BE000406800F4803098B9B148006800F0020015
:100BF00020B12069012801D0012061E7AC480068DC
:100C000020F0F800616940EAC100A949086033E0BA
:100C10002069E8B10120A7490860FFF765FD054696
:100C200006E0FFF761FD401B022801D9032047E7DA
:100C30009F48006800F002000028F2D09C4800683D
:100C400020F0F800616940EAC1009949086013E0AA
:100C5000002098490860FFF747FD054606E0FFF7CA
:100C600043FD401B022801D9032029E79048006872
:100C700000F002000028F2D1207800F008000828D7
:100C80002DD1A069B8B101208B490860FFF72CFD78
:100C9000054606E0FFF728FD401B022801D9032086
:100CA0000EE78348406A00F002000028F2D00120DD
:100CB00000F0EAFD13E000207F490860FFF714FD13
:100CC000054606E0FFF710FD401B022801D903206E
:100CD000F6E67748406A00F002000028F2D120785A
:100CE00000F00400042873D100277148C06900F0A7
:100CF000805070B900BF6E48C06940F080506C49A8
:100D0000C8610846C06900F08050009000BF00BF75
:100D100001276A48006800F48070B0B9674800682D
:100D200040F4807065490860FFF7DEFC054606E088
:100D3000FFF7DAFC401B642801D90320C0E65F48B6
:100D4000006800F480700028F2D000BFE06801283D
:100D500006D15748006A40F001005549086227E073
:100D6000E06858B95248006A20F001005049086212
:100D70000846006A20F00400086219E0E0680528CF
:100D80000BD14B48006A40F004004949086208460C
:100D9000006A40F0010008620AE04548006A20F05D
:100DA0000100434908620846006A20F00400086216
:100DB00000BFE068A0B1FFF797FC054609E0FFF728
:100DC00093FC401B41F28831884202D9032077E628
:100DD00022E03748006A00F002000028EFD012E05D
:100DE000FFF782FC054608E0FFF77EFC401B41F25E
:100DF0008831884201D9032062E62D48006A00F05C
:100E000002000028F0D1012F05D12948C06920F047
:100E100080502749C86100BFE069C8B324484068D2
:100E200000F00C00082860D0E069022848D10020BA
:100E300020490866FFF758FC054606E0FFF754FC1A
:100E4000401B022801D903203AE61948006800F047
:100E500000700028F2D1206AB0F5803F07D1144815
:100E6000406820F40030A168084311494860D4E983
:100E7000080108430E49496821F4741108430C49DC
:100E8000486001200B490866FFF72EFC054607E085
:100E90003DE0FFF729FC401B022801D903200FE6A3
:100EA0000348006800F000700028F2D02FE0000036
:100EB00000100240000042428004424200700040A4
:100EC000002014490866FFF70FFC054606E0FFF70F
:100ED0000BFC401B022801D90320F1E50E480068F5
:100EE00000F000700028F2D111E0E069012800D183
:100EF000E6E50948466806F48031206A814204D15B
:100F000006F47011606A814201D00120D8E500200A
:100F1000D6E50000000042420010024070B50446D1
:100F20002546681EB0F1807F01D301200FE0681EC6
:100F30004FF0E02148610F214FF0FF3000F07CFDC1
:100F400000204FF0E021886107200861002070BD7B
:100F50007047704710B5024600BF92F83C00012868
:100F600001D1022010BD012082F83C0000BF022008
:100F700082F83D00106843681068846823F07003AD
:100F80000868034324F08004486804431068436001
:100F900010688460012082F83D0000BF002082F8C4
:100FA0003C0000BF00BFDDE710B504460CB90120CE
:100FB00010BD94F83D0028B9002084F83C0020467C
:100FC00000F00CF8022084F83D00211D206800F09C
:100FD000DBFC012084F83D000020E9E738B5044639
:100FE0000D492068884215D100BF0C48C06940F007
:100FF00010000A49C8610846C06900F0100000905E
:1010000000BF00BF002202213620FFF7F3FB36208D
:10101000FFF7E0FB38BD0000001000400010024068
:1010200001460868C06840F001000B68D860086895
:10103000806800F00702062A05D00868006840F0C2
:1010400001000B6818600020704701460868C068FE
:1010500020F001000A68D06000BF0868006A41F211
:101060001112104050B90868006A9210104028B957
:101070000868006820F001000A68106000BF0020C6
:101080007047704710B5044620680069C0F34000FF
:10109000D8B12068C068C0F34000B0B16FF0020062
:1010A00021680861012020772068806900F0030032
:1010B00018B12046FFF7E5FF05E0204600F0ADF847
:1010C000204600F0ABF80020207720680069C0F3CC
:1010D0008000D8B12068C068C0F38000B0B16FF064
:1010E000040021680861022020772068806900F4EC
:1010F000407018B12046FFF7C4FF05E0204600F01D
:101100008CF8204600F08AF80020207720680069DB
:10111000C0F3C000D8B12068C068C0F3C000B0B14F
:101120006FF0080021680861042020772068C069FA
:1011300000F0030018B12046FFF7A3FF05E02046AA
:1011400000F06BF8204600F069F800202077206856
:101150000069C0F30010D8B12068C068C0F3001067
:10116000B0B16FF010002168086108202077206876
:10117000C06900F4407018B12046FFF782FF05E017
:10118000204600F04AF8204600F048F8002020777A
:101190002068006900F0010058B12068C06800F0C4
:1011A000010030B16FF0010021680861204600F0B5
:1011B00037F820680069C0F3C01058B12068C068D3
:1011C000C0F3C01030B16FF0800021680861204684
:1011D000FFF7BEFE20680069C0F3801058B1206898
:1011E000C068C0F3801030B16FF040002168086122
:1011F000204600F02FF820680069C0F3401058B175
:101200002068C068C0F3401030B16FF02000216842
:1012100008612046FFF79DFE10BD70477047000033
:10122000094A016891420DD108490968491C074AD9
:1012300011601146096841F28832914202DB0121B6
:10124000034A11707047000000100040B4000020F5
:10125000AF000020704700BFFEE7000000B585B07A
:101260000020019002900390049000BF49488069DB
:1012700040F04000474988610846806900F040001E
:10128000009000BF00BF00BF0846806940F010001A
:1012900088610846806900F01000009000BF00BF20
:1012A00000BF0846806940F02000886108468069D8
:1012B00000F02000009000BF00BF00BF084680691A
:1012C00040F0040088610846806900F00400009046
:1012D00000BF00BF00BF0846806940F00800886179
:1012E0000846806900F00800009000BF00BF00229F
:1012F0000E212948FFF7F1F900224FF470612748C9
:10130000FFF7EBF900224FF440712548FFF7E5F9AC
:101310000E200190012002900020039002200490F2
:1013200001A91D48FFF732F84FF4F06001901D4805
:1013300002900120039001A91748FFF727F84FF406
:10134000706001900120029003900320049001A995
:101350001248FFF71BF84FF44070019001200290F3
:10136000002003900220049001A90D48FFF70EF819
:10137000012200211720FFF73DFA1720FFF72AFA74
:10138000022200212820FFF735FA2820FFF722FA51
:1013900005B000BD001002400018014000140140DB
:1013A000000C0140000021101CB5002000900190AD
:1013B0000E480F4908600620486000210C488160F3
:1013C00042F20F71C16000218161FFF7EDFD08B1AC
:1013D000FEF745FF00200090019069460448FFF7A2
:1013E000B9FD08B1FEF73BFF1CBD00000010004036
:1013F000B80A002000BFFEE700BFFEE770B500247A
:1014000019E004F1B001C8B2002100F0F5F90021A3
:10141000022000F0F1F90021102000F0EDF9002584
:1014200005E00121002000F0E7F9681CC5B2802D1D
:10143000F7DB601CC4B2082CE3DB70BD2DE9F05F64
:1014400006460F4690461C46DDF828A04FF0000BDC
:10145000E11704EB5171C910A4EBC10131B9204669
:10146000E11704EB5171C1F3C70506E02046E1170F
:1014700004EB5171C910491CCDB23D4615E0294617
:10148000304600F0F3F8B1460BE059460BF1010B82
:101490001AF80100012100F0AFF909F1010000F094
:1014A000FF09C145F1DB681CC5B2A542E7DBBDE819
:1014B000F09F000000B585B00020019002900390DD
:1014C000049000BF1848806940F008001649886100
:1014D0000846806900F00800009000BF00BF00BF10
:1014E0000846806940F0400088610846806900F045
:1014F0004000009000BF00BF0E200190012002902C
:101500000220049001A90948FEF740FF4FF4407003
:101510000190012002900220049001A90448FEF7E6
:1015200035FF05B000BD000000100240001801406A
:10153000000C014010B5012204214B48FFF7CDF803
:101540006420FEF78FFE002204214748FFF7C5F80C
:101550006420FEF787FE012204214348FFF7BDF80F
:101560000021AE2000F048F90021022000F044F9EB
:101570000021102000F040F90021402000F03CF94B
:101580000021812000F038F90021CF2000F034F94B
:101590000021A12000F030F90021C82000F02CF932
:1015A0000021A62000F028F90021A82000F024F94D
:1015B00000213F2000F020F90021812000F01CF9DB
:1015C0000021FF2000F018F90021D32000F014F9C9
:1015D0000021084600F010F90021D52000F00CF998
:1015E0000021802000F008F90021D92000F004F942
:1015F0000021F12000F000F90021DA2000F0FCF8D1
:101600000021122000F0F8F80021DB2000F0F4F8AF
:101610000021402000F0F0F80021202000F0ECF83C
:101620000021022000F0E8F800218D2000F0E4F80D
:101630000021142000F0E0F80021A42000F0DCF8E4
:101640000021A62000F0D8F80021AF2000F0D4F847
:101650000021AF2000F0D0F8FFF7D0FE00210846AF
:1016600000F004F810BD00000018014070B50446F9
:101670000D4605F1B001C8B2002100F0BDF81021FF
:1016800041EA1410002100F0B7F804F00F0141F016
:101690000100002100F0B0F870BD00002DE9F0411C
:1016A00080460E461546002731464046FFF7DEFFCE
:1016B00000240AE0124A02EB4511085D012100F006
:1016C0009BF8781CC7B2601CC4B2102CF2DB701CF3
:1016D000C1B24046FFF7CAFF00240CE06900491C74
:1016E000074A02EB0111085D012100F085F8781C22
:1016F000C7B2601CC4B2102CF0DBBDE8F081000062
:10170000C00400202DE9F04107460E469046002512
:101710000024A8F12000C5B27F2F02DD0027B01CF5
:10172000C6B231463846FFF7A1FF002408E004EBBB
:1017300005110F4A505C012100F05EF8601CC4B234
:10174000082CF4DB701CC1B23846FFF78FFF002471
:1017500009E004EB05110831054A505C012100F055
:101760004BF8601CC4B2082CF3DBBDE8F08100002C
:10177000F82300082DE9FF5F074691461D460E9E9F
:101780004FF0000A002433E0281B401EC1B20A209B
:1017900000F0DEFCB9FBF0F00A21B0FBF1F201FB36
:1017A0001208BAF1000F13D1681EA04210DDB8F183
:1017B000000F0BD1B34606EBDB71491001FB04713E
:1017C000C8B220220199FFF79DFF0FE04FF0010AF8
:1017D000B34606EBDB71491001FB0471C8B208F196
:1017E0003001CAB20199FFF78DFF00BF601CC4B27F
:1017F000AC42C9DBBDE8FF9F70B504460E462EB172
:10180000012202211D48FEF768FF04E000220221A8
:101810001A48FEF762FF002208211848FEF75DFF14
:1018200000251DE000224FF400711548FEF755FF1A
:1018300004F0800028B1012211021148FEF74DFF8B
:1018400005E000224FF480710D48FEF746FF0122AB
:1018500051020B48FEF741FF6006040E681CC5B23A
:10186000082DDFDB012208210448FEF736FF0122A4
:1018700002210248FEF731FF70BD00000018014050
:10188000000C01407047000008B508490968C90804
:101890004FF47A72B1FBF2F14143009100BF00BFF7
:1018A00000994A1E00920029F9D108BDB00A002013
:1018B000704710B5FEF71EFF10BD00B58FB0282190
:1018C00005A8FEF76AFC14216846FEF766FC0120B5
:1018D0000590000406900020079001200990022046
:1018E0000C90C1030D914FF4E0110E9105A8FFF784
:1018F000E3F808B1FEF7B3FC0F200090022001903E
:10190000002002904FF48060039000200490022198
:101910006846FEF7C1FF08B1FEF7A1FC0FB000BD9D
:101920001148006840F001000F490860084640680F
:101930000E4908400C494860084600680C490840B8
:10194000094908600846006820F4802008600846BD
:10195000406820F4FE0048604FF41F008860C80310
:101960000449086070470000001002400000FFF8C2
:10197000FFFFF6FE08ED00E010B50248FFF782FB1E
:1019800010BD0000B80A002010B50268204B984234
:101990000ED0204B98420BD0B0F1804F08D01E4B98
:1019A000984205D01D4B984202D01D4B984203D15E
:1019B00022F070024B681A43154B98420ED0154B1B
:1019C00098420BD0B0F1804F08D0134B984205D00D
:1019D000124B984202D0124B984203D122F440722B
:1019E000CB681A4322F080034C6943EA0402026088
:1019F0008B68C3620B688362054B984202D0054B2B
:101A0000984201D10B6903630123436110BD0000BB
:101A1000002C014000340140000400400008004058
:101A2000000C004000BFFEE702480068C0F302203F
:101A3000704700000CED00E010B5002804DB0A0739
:101A4000130E054A135406E00A07140E034A00F069
:101A50000F031B1FD45410BD00E400E018ED00E09C
:101A600002E008C8121F08C1002AFAD17047704767
:101A7000002001E001C1121F002AFBD170470000C5
:101A800008B591480078012842D1FFF7B7FC1F2222
:101A900000210846FFF702FE202200211020FFF758
:101AA000FDFD212200212020FFF7F8FD2222002148
:101AB0003020FFF7F3FD232200214020FFF7EEFD49
:101AC000824808231A22052100900420FFF7B6FC63
:101AD0007F4808231F22072100900120FFF7AEFC5A
:101AE0007B4808233F22072100902120FFF7A6FC16
:101AF000774808235F22072100904120FFF79EFCD2
:101B0000734808237F22072100906120FFF796FC8D
:101B10006D480078022842D1FFF770FC1F22002197
:101B20000846FFF7BBFD202200211020FFF7B6FD7D
:101B3000212200212020FFF7B1FD222200213020A8
:101B4000FFF7ACFD232200214020FFF7A7FD5F48EF
:101B500008233A22052100902420FFF76FFC5C48FF
:101B600008231F22072100900120FFF767FC584837
:101B700008233F22072100902120FFF75FFC5448F3
:101B800008235F22072100904120FFF757FC5048AF
:101B900008237F22072100906120FFF74FFC4A486D
:101BA0000078032847D1FFF729FC1F2200210846AF
:101BB000FFF774FD202200211020FFF76FFD212286
:101BC00000212020FFF76AFD222200213020FFF7AC
:101BD00065FD232200214020FFF760FD3B480823DC
:101BE0005A22052100904420FFF728FC384808239A
:101BF0001F22072100900120FFF720FC3448082312
:101C00003F22072100902120FFF718FC30480823CD
:101C10005F22072100904120FFF710FC2C48082389
:101C20007F22072100906120FFF708FC29480078F7
:101C3000401C2849087024480078042842D1FFF746
:101C4000DDFB1F2200210846FFF728FD202200218E
:101C50001020FFF723FD212200212020FFF71EFD89
:101C6000222200213020FFF719FD232200214020ED
:101C7000FFF714FD154808237A22052100906420FF
:101C8000FFF7DCFB124808231F22072100900120E8
:101C9000FFF7D4FB0E4808233F22072100902120A4
:101CA000FFF7CCFB0A4808235F2207210090412060
:101CB000FFF7C4FB064808237F220721009061201C
:101CC000FFF7BCFB08BD0000AE00002000000020B4
:101CD00042000020B000002070B5FEF705FD05466B
:101CE0002846FEF74BFAFEF73FFA0446C01704EB0E
:101CF00090708010A4EB8000401CC0B270BD10B585
:101D0000FFF77CFB112202212820FFF7C7FC1222DB
:101D100002213820FFF7C2FC132202214820FFF7DE
:101D2000BDFC0D2204212020FFF7B8FC0E22042167
:101D30003020FFF7B3FC142204214020FFF7AEFC53
:101D4000152204215020FFF7A9FC4FF4FA70FEF78A
:101D500089FA10BD08B5FEF7D9FCFFF7AEFDFFF715
:101D60007DFAFFF721FBFFF7A5FBFFF7E3FB00BFC1
:101D7000FFF744FB0B2200212020FFF78FFC0C22F1
:101D800000213020FFF78AFC0D2200214020FFF7C0
:101D900085FC0E2200215020FFF780FC2922032120
:101DA0002020FFF77BFC2A2203213020FFF776FC5E
:101DB0002B2203214020FFF771FC2C22032150200D
:101DC000FFF76CFC252206212020FFF767FC262266
:101DD00006213020FFF762FC272206214020FFF772
:101DE0005DFC282206215020FFF758FC6EE0CF480A
:101DF0000078C01CC1B22D221020FFF74FFCCC4848
:101E00000078012831D1C948007828B9242203215B
:101E10001020FFF743FC08E0C4480078032804D1F1
:101E2000242206211020FFF739FC0120C149087047
:101E3000BE480078C01EBD490870084600780328D7
:101E400001DD03200870B9480078C01C10B90320D8
:101E5000B6490870B5480078002802DA0320B34973
:101E600008700020B249087030E0B14800780228BC
:101E700024D1AE48007828B9242203211020FFF78E
:101E80000DFC08E0A9480078032804D1242206218B
:101E90001020FFF703FCA5480078C01CA349087078
:101EA0000220A4490870A1480078032802DD002020
:101EB0009E49087000209E49087007E09C48007801
:101EC000042803D100209A49087000E08FE700BF82
:101ED0006420FEF7C7F9002095490870FFF78EFAD5
:101EE000002093490870002211461046FFF7D6FBE8
:101EF000012200211020FFF7D1FB02220021202027
:101F0000FFF7CCFB032200213020FFF7C7FB0422A0
:101F100000214020FFF7C2FB052200215020FFF7DF
:101F2000BDFB062200216020FFF7B8FB072203213A
:101F30001020FFF7B3FB082203212020FFF7AEFBA0
:101F4000092203213020FFF7A9FB0A2203214020A8
:101F5000FFF7A4FB0B2203215020FFF79FFB0C226D
:101F600006212020FFF79AFB0D2206213020FFF7E3
:101F700095FB6420FEF776F900206D4908700E226B
:101F800006214020FFF78AFB00206949087000BF46
:101F9000674800780028FBD0002065490870664932
:101FA000087066490870664908704FF47A70FEF749
:101FB00059F96420FEF756F900205D490870614820
:101FC000FFF72EF8B0E05B48007801285CD1FFF7FE
:101FD00083FE5B490870FFF753FD574800780128DE
:101FE00000D13CE04CE0584800684FF47A7190FB17
:101FF000F1F084B2142002232246002100904020F8
:10200000FFF7B8FB4D480078012808D1FFF764FEC0
:102010004B490870FFF734FD0020484908704448D8
:1020200000784749097888420FD100204649086066
:102030004149087000F097F8012040490870434971
:10204000087000203A4908701AE0394800783C4985
:102050000978884214D03648007888B100BF002043
:1020600035490870FFF74BFE022038490870002000
:102070002F490870344908603248FEF7E6FF77E6DA
:102080002D4800780028AED02A48007802284BD18D
:102090002C48FEF7DAFFFFF71FFE29490870FFF70B
:1020A000EFFC3DE02E2200214020FFF7F7FA234805
:1020B0000078012808D1FFF70FFE21490870FFF7CB
:1020C000DFFC00201D490870194800781C49097878
:1020D00088420DD100201849087000F044F8012012
:1020E000164908701949087000201149087017E056
:1020F0000F48007812490978884211D00C480078BE
:1021000070B100200C490870FFF7F9FD02200F495B
:1021100008700020064908700A48FEF796FF27E677
:10212000054800780028BDD04DE70000B800002029
:10213000B1000020AC000020AF000020AD00002066
:10214000AE000020B80A0020B4000020AB00002040
:1021500010B50246012000E050430B1EA1F101041E
:10216000E1B2F9D110BD10B5FFF748F916220221EE
:102170002820FFF793FA172202213820FFF78EFA62
:10218000182202214820FFF789FA19220421102081
:10219000FFF784FA1A2204212020FFF77FFA1B227E
:1021A00004213020FFF77AFA1C2204214020FFF797
:1021B00075FA1D2204215020FFF770FA1E22042117
:1021C0006220FFF76BFA4FF4FA70FEF74BF810BD80
:1021D0000000000000000000002F000000000700C9
:1021E000070000147F147F1400242A7F2A12006243
:1021F00064081323003649552250000005030000EF
:1022000000001C224100000041221C000014083E76
:1022100008140008083E0808000000A0600000083C
:102220000808080800006060000000201008040290
:10223000003E5149453E0000427F4000004261514E
:102240004946002141454B31001814127F100027E8
:1022500045454539003C4A494930000171090503AB
:1022600000364949493600064949291E00003636DC
:10227000000000005636000000081422410000143F
:10228000141414140000412214080002015109061C
:1022900000324959513E007C1211127C007F49499D
:1022A0004936003E41414122007F4141221C007FCE
:1022B00049494941007F09090901003E4149497ADC
:1022C000007F0808087F0000417F41000020404156
:1022D0003F01007F08142241007F40404040007FC2
:1022E000020C027F007F0408107F003E4141413E06
:1022F000007F09090906003E4151215E007F09194E
:1023000029460046494949310001017F0101003F4A
:102310004040403F001F2040201F003F4038403FCA
:10232000006314081463000708700807006151492E
:10233000454300007F41410000552A552A550000C1
:1023400041417F000004020102040040404040403F
:10235000000001020400002054545478007F4844D7
:10236000443800384444442000384444487F00380E
:102370005454541800087E0901020018A4A4A47C37
:10238000007F080404780000447D40000040808401
:102390007D00007F102844000000417F4000007C49
:1023A00004180478007C0804047800384444443855
:1023B00000FC242424180018242418FC007C0804A1
:1023C000040800485454542000043F444020003C7A
:1023D0004040207C001C2040201C003C4030403C01
:1023E000004428102844001CA0A0A07C0044645491
:1023F0004C441414141414140000000000000000D5
:102400000000000000000000000000F800000000D4
:10241000000000333000000000100C06100C060015
:10242000000000000000000040C07840C07840007C
:10243000043F04043F040400007088FC08300000DE
:10244000001820FF211E0000F008F000E018000036
:1024500000211C031E211E0000F0088870000000EF
:102460001E2123241927211010160E000000000041
:102470000000000000000000000000E0180402005E
:10248000000000071820400000020418E0000000CF
:102490000040201807000000404080F080404000CD
:1024A0000202010F01020200000000F00000000023
:1024B0000101011F010101000000000000000000F7
:1024C00080B070000000000000000000000000006C
:1024D00000010101010101010000000000000000F5
:1024E0000030300000000000000000008060180490
:1024F000006018060100000000E010080810E0006D
:10250000000F102020100F00001010F80000000035
:102510000020203F2020000000700808088870007C
:1025200000302824222130000030088888483000FC
:102530000018202020110E000000C02010F800001C
:1025400000070424243F240000F8088888080800B5
:102550000019212020110E0000E0108888180000CA
:10256000000F112020110E0000380808C83808009C
:102570000000003F0000000000708808088870001C
:10258000001C222121221C0000E010080810E0009D
:102590000000312222110F00000000C0C000000026
:1025A000000000303000000000000080000000004B
:1025B0000000806000000000000080402010080043
:1025C000000102040810200040404040404040000C
:1025D00004040404040404000008102040800000E7
:1025E0000020100804020100007048080808F000EC
:1025F0000000003036010000C030C828E810E000BC
:102600000718272423140B000000C038E000000046
:10261000203C23020227382008F8888888700000B0
:10262000203F202020110E00C03008080808380084
:10263000071820202010080008F808080810E000FB
:10264000203F202020100F0008F88888E80810009C
:10265000203F20202320180008F88888E808100070
:10266000203F200003000000C030080808380000A8
:1026700007182020221E020008F808000008F808A9
:10268000203F210101213F20000808F80808000030
:102690000020203F2020000000000808F808080063
:1026A000C08080807F00000008F888C028180800DB
:1026B000203F20012638200008F808000000000014
:1026C000203F20202020300008F8F800F8F808000B
:1026D000203F003F003F200008F830C00008F80805
:1026E000203F200007183F00E01008080810E00015
:1026F0000F10202020100F0008F808080808F0002C
:10270000203F210101010000E01008080810E0004E
:102710000F18242438504F0008F8888888887000E3
:10272000203F2000030C3020007088080808380083
:102730000038202121221C00180808F80808180079
:102740000000203F2000000008F808000008F808FA
:10275000001F202020201F000878880000C83808AB
:10276000000007380E010000F80800F80008F80023
:10277000033C0700073C03000818688080681808BD
:1027800020302C03032C30200838C800C83808003B
:102790000000203F2000000010080808C83808008A
:1027A0002038262120201800000000FE020202002E
:1027B0000000007F40404000000C30C000000000DE
:1027C000000000010638C00000020202FE00000006
:1027D000004040407F0000000000040202020400AC
:1027E00000000000000000000000000000000000E9
:1027F00080808080808080800002020400000000D1
:1028000000000000000000000000808080800000C8
:102810000019242222223F2008F8008080000000B6
:10282000003F112020110E00000000808080000079
:10283000000E112020201100000000808088F80088
:10284000000E112020103F200000808080800000BA
:10285000001F222222221300008080F0888888181E
:102860000020203F20200000000080808080800029
:10287000006B94949493600008F8008080800000BE
:10288000203F210000203F20008098980000000099
:102890000020203F202000000000008098980000C9
:1028A00000C08080807F000008F8000080808000E9
:1028B000203F24022D302000000808F8000000000E
:1028C0000020203F202000008080808080808000C9
:1028D000203F20003F20003F80800080808000005B
:1028E000203F210000203F200000808080800000E9
:1028F000001F202020201F0080800080800000001A
:1029000080FFA12020110E00000000808080800048
:10291000000E112020A0FF80808080008080800039
:1029200020203F2120000100000080808080800066
:102930000033242424241900008080E080800000DB
:102940000000001F20200000808000000080800028
:10295000001F202020103F20808080000080808089
:1029600000010E3008060100808000800080808019
:102970000F300C030C300F0000808000808080003E
:102980000020312E0E312000808080000080808069
:1029900080818E7018060100008080808080800019
:1029A0000021302C2221300000000000807C020237
:1029B00000000000003F404000000000FF00000059
:1029C00000000000FF0000000002027C8000000008
:1029D0000040403F00000000000601010202040424
:1029E00000000000000000000000000000000000E7
:1029F00001020304060708090000000001020304A5
:102A0000202A000800000020B80A0000D4010008B5
:102A1000B4310008B80A002040040000701A000811
:102A200010370000FE7F0F7717760283C3C3820240
:102A30007617770F7FFE0000F87F07000070F0D850
:102A4000181809090818D8F0700000077FF83F3CF3
:102A5000001F3F060607010001000D1701070606CB
:102A60003F1F003C3F181710016014171860F8FC56
:102A7000FCFC7C3E1F0F07070FDEFEFC30000160F0
:102A8000163E7FFFE3C180C0E0F0F87EFFFFFFFD50
:102A9000F8F0F0E0C0801D220101310810070307A3
:102AA0000F1F1F3F010006313E3C00010001403D69
:102AB0000202FAFAAAAAFFFFAAAAFAFA0202000080
:102AC0004272723A7A424B5B52626213776600201E
:102AD0003C1CFFFFB0B424243F3FE4E42424200244
:102AE0000203FFFF0001051D59C1FF7F85300CF86F
:102AF000F8484C4F4B4A4848F8F8BA4004FFFF44A6
:102B0000011129200500202424381021243010FF31
:102B1000FF10F0F000081C1F0B0C0D4F6E341C0F43
:102B200023607F3F0080C060F8FF0702352006E089
:102B3000703C1C0840000E3E7F7F0406033F7F4030
:102B4000404078780001200810218670007E4A01FC
:102B5000327EEF5007FE01407F4141031240AF102B
:102B60000AFC042424FCA5A6A4FCA6102E040080C4
:102B7000601F808042462A12122A2642C040000866
:102B80000808FF8848009848280A2C48D8080002FE
:102B900042817F0000404242427E041140100B50AF
:102BA0004F4A48FF48484800FCFA21BF100C3F013B
:102BB00001FF21613F000F40802A100700908CA484
:102BC000A4A45F1101180A948C040000804020180E
:102BD0003D13003FE01937100F000474D4FFD47484
:102BE00004100CB744B40C20200F42437A434243F4
:102BF0007E4B4B4A4A4243018011831007F94A4CED
:102C00004848C80C140800404020100C03583804F1
:102C100040403F28180E202C246474ADA6E43424D0
:102C2000242C2438200E24242515150DFE040D1700
:102C300014246411240600F848484C9F46489F66B7
:102C4000009F2244AF25A0159F1409201010FF10EB
:102C500010F000A010070B080C054E24652220621E
:102C6000053E00180E0807FAAAAEAAAAA8ACABAA9D
:102C7000FE0A60100708088B6A1E0A012004FE0A7B
:102C80000BD03008106001C63000107F1710100FF5
:102C9000141304FE01004161514D43414151E101D2
:102CA000004041CE95240940BE828282BEC040B021
:102CB000140C7F20908040432C10102C43A0100552
:102CC00020212EE4C6110122FF0539402B20104897
:102CD0005EFF490311FF3248A25500130F0401267D
:102CE0003F00364F812202015C08E2120A06020010
:102CF000805A032B4181DB4D6403400720202222B0
:102D0000E222042160558035C015C160094020F8D9
:102D10000F82601E14C0250531446EFFA4035005C8
:102D200000007E480112CC985204011C0F24464436
:102D3000201F0000849494FF94948022031005FCCB
:102D4000121312CA14061806FF021C2A1407023FA7
:102D5000414141711A2405D0FE50902127D0FE2117
:102D60001C040806017F033805100804435E300A7E
:102D7000009088A7A2A6BAA2F80643828060100736
:102D80000C340444847F6A29F1130CE0A410054F2D
:102D90004849FE86160860299512FFD1223FD110BE
:102DA0000800809090484C577F3C06544C448080EB
:102DB00061041006FF4949497F0439CE19151A1FCD
:102DC000181810808282E2928A86800040221508BC
:102DD000166102417F553F340402E222415573716E
:102DE0001D3D5F03140604FC0002F2C032FE5F15B5
:102DF0007F3A0FD64B4888C2AC0838340282C27C76
:102E000038B5038F3737C0031999580C902098882C
:102E100088E98E8888A89880600980844B281028CB
:102E200047807F2006FE020242828A517531BB270D
:102E3000010621100D8060F88780848484FE8283DF
:102E4000828115D21EFF45032F404060041DBF0341
:102E5000140E101012D2565A5253525A56D21260B1
:102E6000180D4030007785858DB5858585E79D11E6
:102E7000101C0EEF242480E49C105454FF547C104A
:102E80007205240E7F21512618274445455F45458C
:102E900044191B82FE9D4106158080058040300F3D
:102EA000846540440940E05847405060C0401E21BE
:102EB00056061D42041E424A061C0D1060028C007C
:102EC00008F94EC820584FE20315A0137E81423402
:102ED00004407F00C21D91031006488808C838B11D
:102EE0001805FF2022AC802DFF031F041846045450
:102EF0000617182641F06032FE855AFEDF4A0F9D04
:102F00001C044041404005A280010D12210520070C
:102F100088C43300FE920121402F0201C603140A27
:102F2000FF4020030C142241402B1C0542CC2020E2
:102F3000C2034C05BFAAAAAE0003140B1F204067B2
:102F4000504846485067411410E000FF1020FC0430
:102F5000D454D404FF84650660140DFF0008473084
:102F60000131455842610AC86C0440301EDE032D11
:102F70001F03141081814121110D0301030D112143
:102F8000418181091C0802FA02FE4020D82607165A
:102F9000F080140B8047300F106780402116271FE8
:102FA00040807F031C052424A47F1F031F7FA4A649
:102FB000041620202F22195904240608300409324F
:102FC00020100402EAAA0122AF053FEA02CF063F21
:102FD0004A4BEF053F4B4AD00619001E0773051FE9
:102FE0000F083F054B2818001DDD0421444C040147
:102FF00006187A042E90130419A915709806044433
:10300000827F01C33C0C4262524AC6425262C200F5
:10301000F8E004200540C444448F5E20E0044D796C
:1030200004140480F880A02D40051C051030100FFA
:10303000A7051DDE052C055F424443C0061D7D0625
:103040001E49EC056D8106400600FF804912050C03
:1030500004203F40F040031522D5B2AE332B0318B5
:103060000C484AFA0AFE09F949A800000D400DFF74
:103070000022110B04FF0409122300A11E80700618
:103080002C0A504844C3444850204081031C04404B
:10309000221A2C031E7F61042C040A1260FF061DF5
:1030A0001C032EFC60043D83051DD8041D6B041D0C
:1030B000F805570106021EF847032C06F0121212FB
:1030C000F267035D5B03D0061F1111111FA67DBDC2
:1030D000030F2B3636A1072D4B062C05C27E42C2AC
:1030E0004E063E401F073DE0065D5F0535001DAD05
:1030F000043D84052DC1071E1001052C0A10102265
:1031000022448001020440061C0810D0FF9014E401
:10311000AF65071FAFE42F031F0403E0031C0B89F7
:103120004B2A1A0E1A2A4B888040052290013DDF57
:1031300006131116E02004206020E31C0F00030C8E
:10314000102040F80040445464457E0D076C077E13
:10315000456454444000056E49000519FF2C0C00DD
:1031600000E2222A2AF22A2622E0DF03000E3F3F55
:103170004080FF898989BF89A9C9BF80806D9F036D
:103180009C0690A0E0C0C0A1033C040402035D09BA
:103190001EC09A076004101020071200F619A862DA
:1031A00002075C0400003128052D160A291E3F2461
:0431B000F4340900EA
:0400000508000131BD
:00000001FF
